{
	"HomeWork1/NativeBank.sol": {
		"Bank": {
			"abi": [
				{
					"inputs": [],
					"stateMutability": "nonpayable",
					"type": "constructor"
				},
				{
					"inputs": [
						{
							"internalType": "address",
							"name": "account",
							"type": "address"
						},
						{
							"internalType": "uint256",
							"name": "amount",
							"type": "uint256"
						},
						{
							"internalType": "uint256",
							"name": "balance",
							"type": "uint256"
						}
					],
					"name": "WithdrawalAmountExceedsBalance",
					"type": "error"
				},
				{
					"inputs": [
						{
							"internalType": "address",
							"name": "account",
							"type": "address"
						}
					],
					"name": "WithdrawalAmountZero",
					"type": "error"
				},
				{
					"anonymous": false,
					"inputs": [
						{
							"indexed": true,
							"internalType": "address",
							"name": "account",
							"type": "address"
						},
						{
							"indexed": false,
							"internalType": "uint256",
							"name": "amount",
							"type": "uint256"
						}
					],
					"name": "Deposit",
					"type": "event"
				},
				{
					"anonymous": false,
					"inputs": [
						{
							"indexed": true,
							"internalType": "address",
							"name": "account",
							"type": "address"
						},
						{
							"indexed": false,
							"internalType": "uint256",
							"name": "amount",
							"type": "uint256"
						}
					],
					"name": "Withdrawal",
					"type": "event"
				},
				{
					"stateMutability": "payable",
					"type": "fallback"
				},
				{
					"inputs": [
						{
							"internalType": "address",
							"name": "account",
							"type": "address"
						}
					],
					"name": "balanceOf",
					"outputs": [
						{
							"internalType": "uint256",
							"name": "",
							"type": "uint256"
						}
					],
					"stateMutability": "view",
					"type": "function"
				},
				{
					"inputs": [],
					"name": "deposit",
					"outputs": [],
					"stateMutability": "payable",
					"type": "function"
				},
				{
					"inputs": [
						{
							"internalType": "uint256",
							"name": "amount",
							"type": "uint256"
						}
					],
					"name": "withdraw",
					"outputs": [],
					"stateMutability": "nonpayable",
					"type": "function"
				},
				{
					"inputs": [],
					"name": "withdrawAndRun",
					"outputs": [],
					"stateMutability": "nonpayable",
					"type": "function"
				},
				{
					"stateMutability": "payable",
					"type": "receive"
				}
			],
			"devdoc": {
				"errors": {
					"WithdrawalAmountExceedsBalance(address,uint256,uint256)": [
						{
							"details": "Генерируется, когда сумма снятия превышает баланс счёта.",
							"params": {
								"account": "Адрес аккаунта, который пытался снять средства.",
								"amount": "Сумма, которую пытались снять.",
								"balance": "Текущий баланс аккаунта."
							}
						}
					],
					"WithdrawalAmountZero(address)": [
						{
							"details": "Генерируется, когда пытаются снять нулевую сумму.",
							"params": {
								"account": "Адрес аккаунта, который пытался снять средства."
							}
						}
					]
				},
				"events": {
					"Deposit(address,uint256)": {
						"details": "Генерируется, когда на счёт аккаунта поступает депозит.",
						"params": {
							"account": "Адрес аккаунта, на который был сделан депозит.",
							"amount": "Сумма, которая была внесена."
						}
					},
					"Withdrawal(address,uint256)": {
						"details": "Генерируется, когда со счёта снимаются средства.",
						"params": {
							"account": "Адрес счёта, с которого произошло снятие.",
							"amount": "Сумма, которая была снята."
						}
					}
				},
				"kind": "dev",
				"methods": {
					"balanceOf(address)": {
						"details": "Возвращает баланс счёта.",
						"params": {
							"account": "Адрес счёта."
						},
						"returns": {
							"_0": "Баланс счёта."
						}
					},
					"deposit()": {
						"details": "Вносит средства на счёт."
					},
					"withdraw(uint256)": {
						"details": "Снимает средства со счёта.",
						"params": {
							"amount": "Сумма, которую нужно снять."
						}
					}
				},
				"version": 1
			},
			"evm": {
				"assembly": "    /* \"HomeWork1/NativeBank.sol\":94:1714  contract Bank is INativeBank {... */\n  mstore(0x40, 0x80)\n    /* \"HomeWork1/NativeBank.sol\":238:285  constructor () {... */\n  callvalue\n  dup1\n  iszero\n  tag_1\n  jumpi\n  0x00\n  dup1\n  revert\ntag_1:\n  pop\n    /* \"HomeWork1/NativeBank.sol\":268:278  msg.sender */\n  caller\n    /* \"HomeWork1/NativeBank.sol\":260:265  owner */\n  0x00\n  dup1\n    /* \"HomeWork1/NativeBank.sol\":260:278  owner = msg.sender */\n  0x0100\n  exp\n  dup2\n  sload\n  dup2\n  0xffffffffffffffffffffffffffffffffffffffff\n  mul\n  not\n  and\n  swap1\n  dup4\n  0xffffffffffffffffffffffffffffffffffffffff\n  and\n  mul\n  or\n  swap1\n  sstore\n  pop\n    /* \"HomeWork1/NativeBank.sol\":94:1714  contract Bank is INativeBank {... */\n  dataSize(sub_0)\n  dup1\n  dataOffset(sub_0)\n  0x00\n  codecopy\n  0x00\n  return\nstop\n\nsub_0: assembly {\n        /* \"HomeWork1/NativeBank.sol\":94:1714  contract Bank is INativeBank {... */\n      mstore(0x40, 0x80)\n      jumpi(tag_1, lt(calldatasize, 0x04))\n      shr(0xe0, calldataload(0x00))\n      dup1\n      0x1964743a\n      eq\n      tag_3\n      jumpi\n      dup1\n      0x2e1a7d4d\n      eq\n      tag_4\n      jumpi\n      dup1\n      0x70a08231\n      eq\n      tag_5\n      jumpi\n      dup1\n      0xd0e30db0\n      eq\n      tag_6\n      jumpi\n      jump(tag_2)\n    tag_1:\n      jumpi(tag_2, calldatasize)\n        /* \"HomeWork1/NativeBank.sol\":515:525  _deposit() */\n      tag_9\n        /* \"HomeWork1/NativeBank.sol\":515:523  _deposit */\n      tag_10\n        /* \"HomeWork1/NativeBank.sol\":515:525  _deposit() */\n      jump\t// in\n    tag_9:\n        /* \"HomeWork1/NativeBank.sol\":94:1714  contract Bank is INativeBank {... */\n      stop\n    tag_2:\n        /* \"HomeWork1/NativeBank.sol\":574:584  _deposit() */\n      tag_13\n        /* \"HomeWork1/NativeBank.sol\":574:582  _deposit */\n      tag_10\n        /* \"HomeWork1/NativeBank.sol\":574:584  _deposit() */\n      jump\t// in\n    tag_13:\n        /* \"HomeWork1/NativeBank.sol\":94:1714  contract Bank is INativeBank {... */\n      stop\n        /* \"HomeWork1/NativeBank.sol\":1165:1508  function withdrawAndRun() external onlyOwner {... */\n    tag_3:\n      callvalue\n      dup1\n      iszero\n      tag_14\n      jumpi\n      0x00\n      dup1\n      revert\n    tag_14:\n      pop\n      tag_15\n      tag_16\n      jump\t// in\n    tag_15:\n      stop\n        /* \"HomeWork1/NativeBank.sol\":800:1159  function withdraw(uint256 amount) external override {... */\n    tag_4:\n      callvalue\n      dup1\n      iszero\n      tag_17\n      jumpi\n      0x00\n      dup1\n      revert\n    tag_17:\n      pop\n      tag_18\n      0x04\n      dup1\n      calldatasize\n      sub\n      dup2\n      add\n      swap1\n      tag_19\n      swap2\n      swap1\n      tag_20\n      jump\t// in\n    tag_19:\n      tag_21\n      jump\t// in\n    tag_18:\n      stop\n        /* \"HomeWork1/NativeBank.sol\":597:722  function balanceOf(... */\n    tag_5:\n      callvalue\n      dup1\n      iszero\n      tag_22\n      jumpi\n      0x00\n      dup1\n      revert\n    tag_22:\n      pop\n      tag_23\n      0x04\n      dup1\n      calldatasize\n      sub\n      dup2\n      add\n      swap1\n      tag_24\n      swap2\n      swap1\n      tag_25\n      jump\t// in\n    tag_24:\n      tag_26\n      jump\t// in\n    tag_23:\n      mload(0x40)\n      tag_27\n      swap2\n      swap1\n      tag_28\n      jump\t// in\n    tag_27:\n      mload(0x40)\n      dup1\n      swap2\n      sub\n      swap1\n      return\n        /* \"HomeWork1/NativeBank.sol\":728:794  function deposit() external payable override {... */\n    tag_6:\n      tag_29\n      tag_30\n      jump\t// in\n    tag_29:\n      stop\n        /* \"HomeWork1/NativeBank.sol\":291:472  function _deposit() private onlyValue(msg.value){... */\n    tag_10:\n        /* \"HomeWork1/NativeBank.sol\":329:338  msg.value */\n      callvalue\n        /* \"HomeWork1/NativeBank.sol\":1575:1576  0 */\n      0x00\n        /* \"HomeWork1/NativeBank.sol\":1566:1572  _value */\n      dup2\n        /* \"HomeWork1/NativeBank.sol\":1566:1576  _value > 0 */\n      gt\n        /* \"HomeWork1/NativeBank.sol\":1558:1595  require(_value > 0, \"Value is zero!\") */\n      tag_32\n      jumpi\n      mload(0x40)\n      0x08c379a000000000000000000000000000000000000000000000000000000000\n      dup2\n      mstore\n      0x04\n      add\n      tag_33\n      swap1\n      tag_34\n      jump\t// in\n    tag_33:\n      mload(0x40)\n      dup1\n      swap2\n      sub\n      swap1\n      revert\n    tag_32:\n        /* \"HomeWork1/NativeBank.sol\":359:369  msg.sender */\n      caller\n        /* \"HomeWork1/NativeBank.sol\":351:381  Deposit(msg.sender, msg.value) */\n      0xffffffffffffffffffffffffffffffffffffffff\n      and\n      0xe1fffcc4923d04b559f4d29a8bfc6cda04eb5b0d3c460751c2402c5c5cc9109c\n        /* \"HomeWork1/NativeBank.sol\":371:380  msg.value */\n      callvalue\n        /* \"HomeWork1/NativeBank.sol\":351:381  Deposit(msg.sender, msg.value) */\n      mload(0x40)\n      tag_36\n      swap2\n      swap1\n      tag_28\n      jump\t// in\n    tag_36:\n      mload(0x40)\n      dup1\n      swap2\n      sub\n      swap1\n      log2\n        /* \"HomeWork1/NativeBank.sol\":391:405  accountHolders */\n      0x02\n        /* \"HomeWork1/NativeBank.sol\":411:421  msg.sender */\n      caller\n        /* \"HomeWork1/NativeBank.sol\":391:422  accountHolders.push(msg.sender) */\n      swap1\n      dup1\n      0x01\n      dup2\n      sload\n      add\n      dup1\n      dup3\n      sstore\n      dup1\n      swap2\n      pop\n      pop\n      0x01\n      swap1\n      sub\n      swap1\n      0x00\n      mstore\n      keccak256(0x00, 0x20)\n      add\n      0x00\n      swap1\n      swap2\n      swap1\n      swap2\n      swap1\n      swap2\n      0x0100\n      exp\n      dup2\n      sload\n      dup2\n      0xffffffffffffffffffffffffffffffffffffffff\n      mul\n      not\n      and\n      swap1\n      dup4\n      0xffffffffffffffffffffffffffffffffffffffff\n      and\n      mul\n      or\n      swap1\n      sstore\n      pop\n        /* \"HomeWork1/NativeBank.sol\":456:465  msg.value */\n      callvalue\n        /* \"HomeWork1/NativeBank.sol\":432:440  balances */\n      0x01\n        /* \"HomeWork1/NativeBank.sol\":432:452  balances[msg.sender] */\n      0x00\n        /* \"HomeWork1/NativeBank.sol\":441:451  msg.sender */\n      caller\n        /* \"HomeWork1/NativeBank.sol\":432:452  balances[msg.sender] */\n      0xffffffffffffffffffffffffffffffffffffffff\n      and\n      0xffffffffffffffffffffffffffffffffffffffff\n      and\n      dup2\n      mstore\n      0x20\n      add\n      swap1\n      dup2\n      mstore\n      0x20\n      add\n      0x00\n      keccak256\n      0x00\n        /* \"HomeWork1/NativeBank.sol\":432:465  balances[msg.sender] += msg.value */\n      dup3\n      dup3\n      sload\n      tag_38\n      swap2\n      swap1\n      tag_39\n      jump\t// in\n    tag_38:\n      swap3\n      pop\n      pop\n      dup2\n      swap1\n      sstore\n      pop\n        /* \"HomeWork1/NativeBank.sol\":291:472  function _deposit() private onlyValue(msg.value){... */\n      pop\n      jump\t// out\n        /* \"HomeWork1/NativeBank.sol\":1165:1508  function withdrawAndRun() external onlyOwner {... */\n    tag_16:\n        /* \"HomeWork1/NativeBank.sol\":1672:1677  owner */\n      0x00\n      dup1\n      sload\n      swap1\n      0x0100\n      exp\n      swap1\n      div\n      0xffffffffffffffffffffffffffffffffffffffff\n      and\n        /* \"HomeWork1/NativeBank.sol\":1658:1677  msg.sender == owner */\n      0xffffffffffffffffffffffffffffffffffffffff\n      and\n        /* \"HomeWork1/NativeBank.sol\":1658:1668  msg.sender */\n      caller\n        /* \"HomeWork1/NativeBank.sol\":1658:1677  msg.sender == owner */\n      0xffffffffffffffffffffffffffffffffffffffff\n      and\n      eq\n        /* \"HomeWork1/NativeBank.sol\":1650:1693  require(msg.sender == owner, \"Only owner!\") */\n      tag_41\n      jumpi\n      mload(0x40)\n      0x08c379a000000000000000000000000000000000000000000000000000000000\n      dup2\n      mstore\n      0x04\n      add\n      tag_42\n      swap1\n      tag_43\n      jump\t// in\n    tag_42:\n      mload(0x40)\n      dup1\n      swap2\n      sub\n      swap1\n      revert\n    tag_41:\n        /* \"HomeWork1/NativeBank.sol\":1220:1240  uint256 totalBalance */\n      0x00\n        /* \"HomeWork1/NativeBank.sol\":1243:1264  address(this).balance */\n      selfbalance\n        /* \"HomeWork1/NativeBank.sol\":1220:1264  uint256 totalBalance = address(this).balance */\n      swap1\n      pop\n        /* \"HomeWork1/NativeBank.sol\":1280:1289  uint256 i */\n      0x00\n        /* \"HomeWork1/NativeBank.sol\":1275:1383  for (uint256 i = 0; i < accountHolders.length; i++) {... */\n    tag_45:\n        /* \"HomeWork1/NativeBank.sol\":1299:1313  accountHolders */\n      0x02\n        /* \"HomeWork1/NativeBank.sol\":1299:1320  accountHolders.length */\n      dup1\n      sload\n      swap1\n      pop\n        /* \"HomeWork1/NativeBank.sol\":1295:1296  i */\n      dup2\n        /* \"HomeWork1/NativeBank.sol\":1295:1320  i < accountHolders.length */\n      lt\n        /* \"HomeWork1/NativeBank.sol\":1275:1383  for (uint256 i = 0; i < accountHolders.length; i++) {... */\n      iszero\n      tag_46\n      jumpi\n        /* \"HomeWork1/NativeBank.sol\":1371:1372  0 */\n      0x00\n        /* \"HomeWork1/NativeBank.sol\":1341:1349  balances */\n      0x01\n        /* \"HomeWork1/NativeBank.sol\":1341:1368  balances[accountHolders[i]] */\n      0x00\n        /* \"HomeWork1/NativeBank.sol\":1350:1364  accountHolders */\n      0x02\n        /* \"HomeWork1/NativeBank.sol\":1365:1366  i */\n      dup5\n        /* \"HomeWork1/NativeBank.sol\":1350:1367  accountHolders[i] */\n      dup2\n      sload\n      dup2\n      lt\n      tag_48\n      jumpi\n      tag_49\n      tag_50\n      jump\t// in\n    tag_49:\n    tag_48:\n      swap1\n      0x00\n      mstore\n      keccak256(0x00, 0x20)\n      add\n      0x00\n      swap1\n      sload\n      swap1\n      0x0100\n      exp\n      swap1\n      div\n      0xffffffffffffffffffffffffffffffffffffffff\n      and\n        /* \"HomeWork1/NativeBank.sol\":1341:1368  balances[accountHolders[i]] */\n      0xffffffffffffffffffffffffffffffffffffffff\n      and\n      0xffffffffffffffffffffffffffffffffffffffff\n      and\n      dup2\n      mstore\n      0x20\n      add\n      swap1\n      dup2\n      mstore\n      0x20\n      add\n      0x00\n      keccak256\n        /* \"HomeWork1/NativeBank.sol\":1341:1372  balances[accountHolders[i]] = 0 */\n      dup2\n      swap1\n      sstore\n      pop\n        /* \"HomeWork1/NativeBank.sol\":1322:1325  i++ */\n      dup1\n      dup1\n      0x01\n      add\n      swap2\n      pop\n      pop\n        /* \"HomeWork1/NativeBank.sol\":1275:1383  for (uint256 i = 0; i < accountHolders.length; i++) {... */\n      jump(tag_45)\n    tag_46:\n      pop\n        /* \"HomeWork1/NativeBank.sol\":1394:1406  bool success */\n      0x00\n        /* \"HomeWork1/NativeBank.sol\":1412:1417  owner */\n      dup1\n      0x00\n      swap1\n      sload\n      swap1\n      0x0100\n      exp\n      swap1\n      div\n      0xffffffffffffffffffffffffffffffffffffffff\n      and\n        /* \"HomeWork1/NativeBank.sol\":1412:1422  owner.call */\n      0xffffffffffffffffffffffffffffffffffffffff\n      and\n        /* \"HomeWork1/NativeBank.sol\":1430:1442  totalBalance */\n      dup3\n        /* \"HomeWork1/NativeBank.sol\":1412:1447  owner.call{value: totalBalance}(\"\") */\n      mload(0x40)\n      tag_52\n      swap1\n      tag_53\n      jump\t// in\n    tag_52:\n      0x00\n      mload(0x40)\n      dup1\n      dup4\n      sub\n      dup2\n      dup6\n      dup8\n      gas\n      call\n      swap3\n      pop\n      pop\n      pop\n      returndatasize\n      dup1\n      0x00\n      dup2\n      eq\n      tag_56\n      jumpi\n      mload(0x40)\n      swap2\n      pop\n      and(add(returndatasize, 0x3f), not(0x1f))\n      dup3\n      add\n      0x40\n      mstore\n      returndatasize\n      dup3\n      mstore\n      returndatasize\n      0x00\n      0x20\n      dup5\n      add\n      returndatacopy\n      jump(tag_55)\n    tag_56:\n      0x60\n      swap2\n      pop\n    tag_55:\n      pop\n        /* \"HomeWork1/NativeBank.sol\":1393:1447  (bool success, ) = owner.call{value: totalBalance}(\"\") */\n      pop\n      swap1\n      pop\n        /* \"HomeWork1/NativeBank.sol\":1465:1472  success */\n      dup1\n        /* \"HomeWork1/NativeBank.sol\":1457:1501  require(success, \"Transfer to owner failed\") */\n      tag_57\n      jumpi\n      mload(0x40)\n      0x08c379a000000000000000000000000000000000000000000000000000000000\n      dup2\n      mstore\n      0x04\n      add\n      tag_58\n      swap1\n      tag_59\n      jump\t// in\n    tag_58:\n      mload(0x40)\n      dup1\n      swap2\n      sub\n      swap1\n      revert\n    tag_57:\n        /* \"HomeWork1/NativeBank.sol\":1210:1508  {... */\n      pop\n      pop\n        /* \"HomeWork1/NativeBank.sol\":1165:1508  function withdrawAndRun() external onlyOwner {... */\n      jump\t// out\n        /* \"HomeWork1/NativeBank.sol\":800:1159  function withdraw(uint256 amount) external override {... */\n    tag_21:\n        /* \"HomeWork1/NativeBank.sol\":872:873  0 */\n      0x00\n        /* \"HomeWork1/NativeBank.sol\":862:868  amount */\n      dup2\n        /* \"HomeWork1/NativeBank.sol\":862:873  amount == 0 */\n      sub\n        /* \"HomeWork1/NativeBank.sol\":857:1155  if ( amount == 0 ) {... */\n      tag_61\n      jumpi\n        /* \"HomeWork1/NativeBank.sol\":914:924  msg.sender */\n      caller\n        /* \"HomeWork1/NativeBank.sol\":893:925  WithdrawalAmountZero(msg.sender) */\n      mload(0x40)\n      0x275e9c3f00000000000000000000000000000000000000000000000000000000\n      dup2\n      mstore\n      0x04\n      add\n      tag_62\n      swap2\n      swap1\n      tag_63\n      jump\t// in\n    tag_62:\n      mload(0x40)\n      dup1\n      swap2\n      sub\n      swap1\n      revert\n        /* \"HomeWork1/NativeBank.sol\":857:1155  if ( amount == 0 ) {... */\n    tag_61:\n        /* \"HomeWork1/NativeBank.sol\":963:969  amount */\n      dup1\n        /* \"HomeWork1/NativeBank.sol\":940:948  balances */\n      0x01\n        /* \"HomeWork1/NativeBank.sol\":940:960  balances[msg.sender] */\n      0x00\n        /* \"HomeWork1/NativeBank.sol\":949:959  msg.sender */\n      caller\n        /* \"HomeWork1/NativeBank.sol\":940:960  balances[msg.sender] */\n      0xffffffffffffffffffffffffffffffffffffffff\n      and\n      0xffffffffffffffffffffffffffffffffffffffff\n      and\n      dup2\n      mstore\n      0x20\n      add\n      swap1\n      dup2\n      mstore\n      0x20\n      add\n      0x00\n      keccak256\n      sload\n        /* \"HomeWork1/NativeBank.sol\":940:969  balances[msg.sender] < amount */\n      lt\n        /* \"HomeWork1/NativeBank.sol\":937:1155  if(balances[msg.sender] < amount) {... */\n      iszero\n      tag_65\n      jumpi\n        /* \"HomeWork1/NativeBank.sol\":1019:1029  msg.sender */\n      caller\n        /* \"HomeWork1/NativeBank.sol\":1031:1037  amount */\n      dup2\n        /* \"HomeWork1/NativeBank.sol\":1039:1047  balances */\n      0x01\n        /* \"HomeWork1/NativeBank.sol\":1039:1059  balances[msg.sender] */\n      0x00\n        /* \"HomeWork1/NativeBank.sol\":1048:1058  msg.sender */\n      caller\n        /* \"HomeWork1/NativeBank.sol\":1039:1059  balances[msg.sender] */\n      0xffffffffffffffffffffffffffffffffffffffff\n      and\n      0xffffffffffffffffffffffffffffffffffffffff\n      and\n      dup2\n      mstore\n      0x20\n      add\n      swap1\n      dup2\n      mstore\n      0x20\n      add\n      0x00\n      keccak256\n      sload\n        /* \"HomeWork1/NativeBank.sol\":988:1060  WithdrawalAmountExceedsBalance(msg.sender, amount, balances[msg.sender]) */\n      mload(0x40)\n      0xaf2e69f800000000000000000000000000000000000000000000000000000000\n      dup2\n      mstore\n      0x04\n      add\n      tag_66\n      swap4\n      swap3\n      swap2\n      swap1\n      tag_67\n      jump\t// in\n    tag_66:\n      mload(0x40)\n      dup1\n      swap2\n      sub\n      swap1\n      revert\n        /* \"HomeWork1/NativeBank.sol\":937:1155  if(balances[msg.sender] < amount) {... */\n    tag_65:\n        /* \"HomeWork1/NativeBank.sol\":1094:1104  msg.sender */\n      caller\n        /* \"HomeWork1/NativeBank.sol\":1083:1113  Withdrawal(msg.sender, amount) */\n      0xffffffffffffffffffffffffffffffffffffffff\n      and\n      0x7fcf532c15f0a6db0bd6d0e038bea71d30d808c7d98cb3bf7268a95bf5081b65\n        /* \"HomeWork1/NativeBank.sol\":1106:1112  amount */\n      dup3\n        /* \"HomeWork1/NativeBank.sol\":1083:1113  Withdrawal(msg.sender, amount) */\n      mload(0x40)\n      tag_69\n      swap2\n      swap1\n      tag_28\n      jump\t// in\n    tag_69:\n      mload(0x40)\n      dup1\n      swap2\n      sub\n      swap1\n      log2\n        /* \"HomeWork1/NativeBank.sol\":1143:1149  amount */\n      dup1\n        /* \"HomeWork1/NativeBank.sol\":1119:1127  balances */\n      0x01\n        /* \"HomeWork1/NativeBank.sol\":1119:1139  balances[msg.sender] */\n      0x00\n        /* \"HomeWork1/NativeBank.sol\":1128:1138  msg.sender */\n      caller\n        /* \"HomeWork1/NativeBank.sol\":1119:1139  balances[msg.sender] */\n      0xffffffffffffffffffffffffffffffffffffffff\n      and\n      0xffffffffffffffffffffffffffffffffffffffff\n      and\n      dup2\n      mstore\n      0x20\n      add\n      swap1\n      dup2\n      mstore\n      0x20\n      add\n      0x00\n      keccak256\n      0x00\n        /* \"HomeWork1/NativeBank.sol\":1119:1149  balances[msg.sender] -= amount */\n      dup3\n      dup3\n      sload\n      tag_70\n      swap2\n      swap1\n      tag_71\n      jump\t// in\n    tag_70:\n      swap3\n      pop\n      pop\n      dup2\n      swap1\n      sstore\n      pop\n        /* \"HomeWork1/NativeBank.sol\":800:1159  function withdraw(uint256 amount) external override {... */\n      pop\n      jump\t// out\n        /* \"HomeWork1/NativeBank.sol\":597:722  function balanceOf(... */\n    tag_26:\n        /* \"HomeWork1/NativeBank.sol\":679:686  uint256 */\n      0x00\n        /* \"HomeWork1/NativeBank.sol\":700:708  balances */\n      0x01\n        /* \"HomeWork1/NativeBank.sol\":700:717  balances[account] */\n      0x00\n        /* \"HomeWork1/NativeBank.sol\":709:716  account */\n      dup4\n        /* \"HomeWork1/NativeBank.sol\":700:717  balances[account] */\n      0xffffffffffffffffffffffffffffffffffffffff\n      and\n      0xffffffffffffffffffffffffffffffffffffffff\n      and\n      dup2\n      mstore\n      0x20\n      add\n      swap1\n      dup2\n      mstore\n      0x20\n      add\n      0x00\n      keccak256\n      sload\n        /* \"HomeWork1/NativeBank.sol\":693:717  return balances[account] */\n      swap1\n      pop\n        /* \"HomeWork1/NativeBank.sol\":597:722  function balanceOf(... */\n      swap2\n      swap1\n      pop\n      jump\t// out\n        /* \"HomeWork1/NativeBank.sol\":728:794  function deposit() external payable override {... */\n    tag_30:\n        /* \"HomeWork1/NativeBank.sol\":779:789  _deposit() */\n      tag_74\n        /* \"HomeWork1/NativeBank.sol\":779:787  _deposit */\n      tag_10\n        /* \"HomeWork1/NativeBank.sol\":779:789  _deposit() */\n      jump\t// in\n    tag_74:\n        /* \"HomeWork1/NativeBank.sol\":728:794  function deposit() external payable override {... */\n      jump\t// out\n        /* \"#utility.yul\":88:205   */\n    tag_76:\n        /* \"#utility.yul\":197:198   */\n      0x00\n        /* \"#utility.yul\":194:195   */\n      dup1\n        /* \"#utility.yul\":187:199   */\n      revert\n        /* \"#utility.yul\":334:411   */\n    tag_78:\n        /* \"#utility.yul\":371:378   */\n      0x00\n        /* \"#utility.yul\":400:405   */\n      dup2\n        /* \"#utility.yul\":389:405   */\n      swap1\n      pop\n        /* \"#utility.yul\":334:411   */\n      swap2\n      swap1\n      pop\n      jump\t// out\n        /* \"#utility.yul\":417:539   */\n    tag_79:\n        /* \"#utility.yul\":490:514   */\n      tag_104\n        /* \"#utility.yul\":508:513   */\n      dup2\n        /* \"#utility.yul\":490:514   */\n      tag_78\n      jump\t// in\n    tag_104:\n        /* \"#utility.yul\":483:488   */\n      dup2\n        /* \"#utility.yul\":480:515   */\n      eq\n        /* \"#utility.yul\":470:533   */\n      tag_105\n      jumpi\n        /* \"#utility.yul\":529:530   */\n      0x00\n        /* \"#utility.yul\":526:527   */\n      dup1\n        /* \"#utility.yul\":519:531   */\n      revert\n        /* \"#utility.yul\":470:533   */\n    tag_105:\n        /* \"#utility.yul\":417:539   */\n      pop\n      jump\t// out\n        /* \"#utility.yul\":545:684   */\n    tag_80:\n        /* \"#utility.yul\":591:596   */\n      0x00\n        /* \"#utility.yul\":629:635   */\n      dup2\n        /* \"#utility.yul\":616:636   */\n      calldataload\n        /* \"#utility.yul\":607:636   */\n      swap1\n      pop\n        /* \"#utility.yul\":645:678   */\n      tag_107\n        /* \"#utility.yul\":672:677   */\n      dup2\n        /* \"#utility.yul\":645:678   */\n      tag_79\n      jump\t// in\n    tag_107:\n        /* \"#utility.yul\":545:684   */\n      swap3\n      swap2\n      pop\n      pop\n      jump\t// out\n        /* \"#utility.yul\":690:1019   */\n    tag_20:\n        /* \"#utility.yul\":749:755   */\n      0x00\n        /* \"#utility.yul\":798:800   */\n      0x20\n        /* \"#utility.yul\":786:795   */\n      dup3\n        /* \"#utility.yul\":777:784   */\n      dup5\n        /* \"#utility.yul\":773:796   */\n      sub\n        /* \"#utility.yul\":769:801   */\n      slt\n        /* \"#utility.yul\":766:885   */\n      iszero\n      tag_109\n      jumpi\n        /* \"#utility.yul\":804:883   */\n      tag_110\n      tag_76\n      jump\t// in\n    tag_110:\n        /* \"#utility.yul\":766:885   */\n    tag_109:\n        /* \"#utility.yul\":924:925   */\n      0x00\n        /* \"#utility.yul\":949:1002   */\n      tag_111\n        /* \"#utility.yul\":994:1001   */\n      dup5\n        /* \"#utility.yul\":985:991   */\n      dup3\n        /* \"#utility.yul\":974:983   */\n      dup6\n        /* \"#utility.yul\":970:992   */\n      add\n        /* \"#utility.yul\":949:1002   */\n      tag_80\n      jump\t// in\n    tag_111:\n        /* \"#utility.yul\":939:1002   */\n      swap2\n      pop\n        /* \"#utility.yul\":895:1012   */\n      pop\n        /* \"#utility.yul\":690:1019   */\n      swap3\n      swap2\n      pop\n      pop\n      jump\t// out\n        /* \"#utility.yul\":1025:1151   */\n    tag_81:\n        /* \"#utility.yul\":1062:1069   */\n      0x00\n        /* \"#utility.yul\":1102:1144   */\n      0xffffffffffffffffffffffffffffffffffffffff\n        /* \"#utility.yul\":1095:1100   */\n      dup3\n        /* \"#utility.yul\":1091:1145   */\n      and\n        /* \"#utility.yul\":1080:1145   */\n      swap1\n      pop\n        /* \"#utility.yul\":1025:1151   */\n      swap2\n      swap1\n      pop\n      jump\t// out\n        /* \"#utility.yul\":1157:1253   */\n    tag_82:\n        /* \"#utility.yul\":1194:1201   */\n      0x00\n        /* \"#utility.yul\":1223:1247   */\n      tag_114\n        /* \"#utility.yul\":1241:1246   */\n      dup3\n        /* \"#utility.yul\":1223:1247   */\n      tag_81\n      jump\t// in\n    tag_114:\n        /* \"#utility.yul\":1212:1247   */\n      swap1\n      pop\n        /* \"#utility.yul\":1157:1253   */\n      swap2\n      swap1\n      pop\n      jump\t// out\n        /* \"#utility.yul\":1259:1381   */\n    tag_83:\n        /* \"#utility.yul\":1332:1356   */\n      tag_116\n        /* \"#utility.yul\":1350:1355   */\n      dup2\n        /* \"#utility.yul\":1332:1356   */\n      tag_82\n      jump\t// in\n    tag_116:\n        /* \"#utility.yul\":1325:1330   */\n      dup2\n        /* \"#utility.yul\":1322:1357   */\n      eq\n        /* \"#utility.yul\":1312:1375   */\n      tag_117\n      jumpi\n        /* \"#utility.yul\":1371:1372   */\n      0x00\n        /* \"#utility.yul\":1368:1369   */\n      dup1\n        /* \"#utility.yul\":1361:1373   */\n      revert\n        /* \"#utility.yul\":1312:1375   */\n    tag_117:\n        /* \"#utility.yul\":1259:1381   */\n      pop\n      jump\t// out\n        /* \"#utility.yul\":1387:1526   */\n    tag_84:\n        /* \"#utility.yul\":1433:1438   */\n      0x00\n        /* \"#utility.yul\":1471:1477   */\n      dup2\n        /* \"#utility.yul\":1458:1478   */\n      calldataload\n        /* \"#utility.yul\":1449:1478   */\n      swap1\n      pop\n        /* \"#utility.yul\":1487:1520   */\n      tag_119\n        /* \"#utility.yul\":1514:1519   */\n      dup2\n        /* \"#utility.yul\":1487:1520   */\n      tag_83\n      jump\t// in\n    tag_119:\n        /* \"#utility.yul\":1387:1526   */\n      swap3\n      swap2\n      pop\n      pop\n      jump\t// out\n        /* \"#utility.yul\":1532:1861   */\n    tag_25:\n        /* \"#utility.yul\":1591:1597   */\n      0x00\n        /* \"#utility.yul\":1640:1642   */\n      0x20\n        /* \"#utility.yul\":1628:1637   */\n      dup3\n        /* \"#utility.yul\":1619:1626   */\n      dup5\n        /* \"#utility.yul\":1615:1638   */\n      sub\n        /* \"#utility.yul\":1611:1643   */\n      slt\n        /* \"#utility.yul\":1608:1727   */\n      iszero\n      tag_121\n      jumpi\n        /* \"#utility.yul\":1646:1725   */\n      tag_122\n      tag_76\n      jump\t// in\n    tag_122:\n        /* \"#utility.yul\":1608:1727   */\n    tag_121:\n        /* \"#utility.yul\":1766:1767   */\n      0x00\n        /* \"#utility.yul\":1791:1844   */\n      tag_123\n        /* \"#utility.yul\":1836:1843   */\n      dup5\n        /* \"#utility.yul\":1827:1833   */\n      dup3\n        /* \"#utility.yul\":1816:1825   */\n      dup6\n        /* \"#utility.yul\":1812:1834   */\n      add\n        /* \"#utility.yul\":1791:1844   */\n      tag_84\n      jump\t// in\n    tag_123:\n        /* \"#utility.yul\":1781:1844   */\n      swap2\n      pop\n        /* \"#utility.yul\":1737:1854   */\n      pop\n        /* \"#utility.yul\":1532:1861   */\n      swap3\n      swap2\n      pop\n      pop\n      jump\t// out\n        /* \"#utility.yul\":1867:1985   */\n    tag_85:\n        /* \"#utility.yul\":1954:1978   */\n      tag_125\n        /* \"#utility.yul\":1972:1977   */\n      dup2\n        /* \"#utility.yul\":1954:1978   */\n      tag_78\n      jump\t// in\n    tag_125:\n        /* \"#utility.yul\":1949:1952   */\n      dup3\n        /* \"#utility.yul\":1942:1979   */\n      mstore\n        /* \"#utility.yul\":1867:1985   */\n      pop\n      pop\n      jump\t// out\n        /* \"#utility.yul\":1991:2213   */\n    tag_28:\n        /* \"#utility.yul\":2084:2088   */\n      0x00\n        /* \"#utility.yul\":2122:2124   */\n      0x20\n        /* \"#utility.yul\":2111:2120   */\n      dup3\n        /* \"#utility.yul\":2107:2125   */\n      add\n        /* \"#utility.yul\":2099:2125   */\n      swap1\n      pop\n        /* \"#utility.yul\":2135:2206   */\n      tag_127\n        /* \"#utility.yul\":2203:2204   */\n      0x00\n        /* \"#utility.yul\":2192:2201   */\n      dup4\n        /* \"#utility.yul\":2188:2205   */\n      add\n        /* \"#utility.yul\":2179:2185   */\n      dup5\n        /* \"#utility.yul\":2135:2206   */\n      tag_85\n      jump\t// in\n    tag_127:\n        /* \"#utility.yul\":1991:2213   */\n      swap3\n      swap2\n      pop\n      pop\n      jump\t// out\n        /* \"#utility.yul\":2219:2388   */\n    tag_86:\n        /* \"#utility.yul\":2303:2314   */\n      0x00\n        /* \"#utility.yul\":2337:2343   */\n      dup3\n        /* \"#utility.yul\":2332:2335   */\n      dup3\n        /* \"#utility.yul\":2325:2344   */\n      mstore\n        /* \"#utility.yul\":2377:2381   */\n      0x20\n        /* \"#utility.yul\":2372:2375   */\n      dup3\n        /* \"#utility.yul\":2368:2382   */\n      add\n        /* \"#utility.yul\":2353:2382   */\n      swap1\n      pop\n        /* \"#utility.yul\":2219:2388   */\n      swap3\n      swap2\n      pop\n      pop\n      jump\t// out\n        /* \"#utility.yul\":2394:2558   */\n    tag_87:\n        /* \"#utility.yul\":2534:2550   */\n      0x56616c7565206973207a65726f21000000000000000000000000000000000000\n        /* \"#utility.yul\":2530:2531   */\n      0x00\n        /* \"#utility.yul\":2522:2528   */\n      dup3\n        /* \"#utility.yul\":2518:2532   */\n      add\n        /* \"#utility.yul\":2511:2551   */\n      mstore\n        /* \"#utility.yul\":2394:2558   */\n      pop\n      jump\t// out\n        /* \"#utility.yul\":2564:2930   */\n    tag_88:\n        /* \"#utility.yul\":2706:2709   */\n      0x00\n        /* \"#utility.yul\":2727:2794   */\n      tag_131\n        /* \"#utility.yul\":2791:2793   */\n      0x0e\n        /* \"#utility.yul\":2786:2789   */\n      dup4\n        /* \"#utility.yul\":2727:2794   */\n      tag_86\n      jump\t// in\n    tag_131:\n        /* \"#utility.yul\":2720:2794   */\n      swap2\n      pop\n        /* \"#utility.yul\":2803:2896   */\n      tag_132\n        /* \"#utility.yul\":2892:2895   */\n      dup3\n        /* \"#utility.yul\":2803:2896   */\n      tag_87\n      jump\t// in\n    tag_132:\n        /* \"#utility.yul\":2921:2923   */\n      0x20\n        /* \"#utility.yul\":2916:2919   */\n      dup3\n        /* \"#utility.yul\":2912:2924   */\n      add\n        /* \"#utility.yul\":2905:2924   */\n      swap1\n      pop\n        /* \"#utility.yul\":2564:2930   */\n      swap2\n      swap1\n      pop\n      jump\t// out\n        /* \"#utility.yul\":2936:3355   */\n    tag_34:\n        /* \"#utility.yul\":3102:3106   */\n      0x00\n        /* \"#utility.yul\":3140:3142   */\n      0x20\n        /* \"#utility.yul\":3129:3138   */\n      dup3\n        /* \"#utility.yul\":3125:3143   */\n      add\n        /* \"#utility.yul\":3117:3143   */\n      swap1\n      pop\n        /* \"#utility.yul\":3189:3198   */\n      dup2\n        /* \"#utility.yul\":3183:3187   */\n      dup2\n        /* \"#utility.yul\":3179:3199   */\n      sub\n        /* \"#utility.yul\":3175:3176   */\n      0x00\n        /* \"#utility.yul\":3164:3173   */\n      dup4\n        /* \"#utility.yul\":3160:3177   */\n      add\n        /* \"#utility.yul\":3153:3200   */\n      mstore\n        /* \"#utility.yul\":3217:3348   */\n      tag_134\n        /* \"#utility.yul\":3343:3347   */\n      dup2\n        /* \"#utility.yul\":3217:3348   */\n      tag_88\n      jump\t// in\n    tag_134:\n        /* \"#utility.yul\":3209:3348   */\n      swap1\n      pop\n        /* \"#utility.yul\":2936:3355   */\n      swap2\n      swap1\n      pop\n      jump\t// out\n        /* \"#utility.yul\":3361:3541   */\n    tag_89:\n        /* \"#utility.yul\":3409:3486   */\n      0x4e487b7100000000000000000000000000000000000000000000000000000000\n        /* \"#utility.yul\":3406:3407   */\n      0x00\n        /* \"#utility.yul\":3399:3487   */\n      mstore\n        /* \"#utility.yul\":3506:3510   */\n      0x11\n        /* \"#utility.yul\":3503:3504   */\n      0x04\n        /* \"#utility.yul\":3496:3511   */\n      mstore\n        /* \"#utility.yul\":3530:3534   */\n      0x24\n        /* \"#utility.yul\":3527:3528   */\n      0x00\n        /* \"#utility.yul\":3520:3535   */\n      revert\n        /* \"#utility.yul\":3547:3738   */\n    tag_39:\n        /* \"#utility.yul\":3587:3590   */\n      0x00\n        /* \"#utility.yul\":3606:3626   */\n      tag_137\n        /* \"#utility.yul\":3624:3625   */\n      dup3\n        /* \"#utility.yul\":3606:3626   */\n      tag_78\n      jump\t// in\n    tag_137:\n        /* \"#utility.yul\":3601:3626   */\n      swap2\n      pop\n        /* \"#utility.yul\":3640:3660   */\n      tag_138\n        /* \"#utility.yul\":3658:3659   */\n      dup4\n        /* \"#utility.yul\":3640:3660   */\n      tag_78\n      jump\t// in\n    tag_138:\n        /* \"#utility.yul\":3635:3660   */\n      swap3\n      pop\n        /* \"#utility.yul\":3683:3684   */\n      dup3\n        /* \"#utility.yul\":3680:3681   */\n      dup3\n        /* \"#utility.yul\":3676:3685   */\n      add\n        /* \"#utility.yul\":3669:3685   */\n      swap1\n      pop\n        /* \"#utility.yul\":3704:3707   */\n      dup1\n        /* \"#utility.yul\":3701:3702   */\n      dup3\n        /* \"#utility.yul\":3698:3708   */\n      gt\n        /* \"#utility.yul\":3695:3731   */\n      iszero\n      tag_139\n      jumpi\n        /* \"#utility.yul\":3711:3729   */\n      tag_140\n      tag_89\n      jump\t// in\n    tag_140:\n        /* \"#utility.yul\":3695:3731   */\n    tag_139:\n        /* \"#utility.yul\":3547:3738   */\n      swap3\n      swap2\n      pop\n      pop\n      jump\t// out\n        /* \"#utility.yul\":3744:3905   */\n    tag_90:\n        /* \"#utility.yul\":3884:3897   */\n      0x4f6e6c79206f776e657221000000000000000000000000000000000000000000\n        /* \"#utility.yul\":3880:3881   */\n      0x00\n        /* \"#utility.yul\":3872:3878   */\n      dup3\n        /* \"#utility.yul\":3868:3882   */\n      add\n        /* \"#utility.yul\":3861:3898   */\n      mstore\n        /* \"#utility.yul\":3744:3905   */\n      pop\n      jump\t// out\n        /* \"#utility.yul\":3911:4277   */\n    tag_91:\n        /* \"#utility.yul\":4053:4056   */\n      0x00\n        /* \"#utility.yul\":4074:4141   */\n      tag_143\n        /* \"#utility.yul\":4138:4140   */\n      0x0b\n        /* \"#utility.yul\":4133:4136   */\n      dup4\n        /* \"#utility.yul\":4074:4141   */\n      tag_86\n      jump\t// in\n    tag_143:\n        /* \"#utility.yul\":4067:4141   */\n      swap2\n      pop\n        /* \"#utility.yul\":4150:4243   */\n      tag_144\n        /* \"#utility.yul\":4239:4242   */\n      dup3\n        /* \"#utility.yul\":4150:4243   */\n      tag_90\n      jump\t// in\n    tag_144:\n        /* \"#utility.yul\":4268:4270   */\n      0x20\n        /* \"#utility.yul\":4263:4266   */\n      dup3\n        /* \"#utility.yul\":4259:4271   */\n      add\n        /* \"#utility.yul\":4252:4271   */\n      swap1\n      pop\n        /* \"#utility.yul\":3911:4277   */\n      swap2\n      swap1\n      pop\n      jump\t// out\n        /* \"#utility.yul\":4283:4702   */\n    tag_43:\n        /* \"#utility.yul\":4449:4453   */\n      0x00\n        /* \"#utility.yul\":4487:4489   */\n      0x20\n        /* \"#utility.yul\":4476:4485   */\n      dup3\n        /* \"#utility.yul\":4472:4490   */\n      add\n        /* \"#utility.yul\":4464:4490   */\n      swap1\n      pop\n        /* \"#utility.yul\":4536:4545   */\n      dup2\n        /* \"#utility.yul\":4530:4534   */\n      dup2\n        /* \"#utility.yul\":4526:4546   */\n      sub\n        /* \"#utility.yul\":4522:4523   */\n      0x00\n        /* \"#utility.yul\":4511:4520   */\n      dup4\n        /* \"#utility.yul\":4507:4524   */\n      add\n        /* \"#utility.yul\":4500:4547   */\n      mstore\n        /* \"#utility.yul\":4564:4695   */\n      tag_146\n        /* \"#utility.yul\":4690:4694   */\n      dup2\n        /* \"#utility.yul\":4564:4695   */\n      tag_91\n      jump\t// in\n    tag_146:\n        /* \"#utility.yul\":4556:4695   */\n      swap1\n      pop\n        /* \"#utility.yul\":4283:4702   */\n      swap2\n      swap1\n      pop\n      jump\t// out\n        /* \"#utility.yul\":4708:4888   */\n    tag_50:\n        /* \"#utility.yul\":4756:4833   */\n      0x4e487b7100000000000000000000000000000000000000000000000000000000\n        /* \"#utility.yul\":4753:4754   */\n      0x00\n        /* \"#utility.yul\":4746:4834   */\n      mstore\n        /* \"#utility.yul\":4853:4857   */\n      0x32\n        /* \"#utility.yul\":4850:4851   */\n      0x04\n        /* \"#utility.yul\":4843:4858   */\n      mstore\n        /* \"#utility.yul\":4877:4881   */\n      0x24\n        /* \"#utility.yul\":4874:4875   */\n      0x00\n        /* \"#utility.yul\":4867:4882   */\n      revert\n        /* \"#utility.yul\":4894:5041   */\n    tag_92:\n        /* \"#utility.yul\":4995:5006   */\n      0x00\n        /* \"#utility.yul\":5032:5035   */\n      dup2\n        /* \"#utility.yul\":5017:5035   */\n      swap1\n      pop\n        /* \"#utility.yul\":4894:5041   */\n      swap3\n      swap2\n      pop\n      pop\n      jump\t// out\n        /* \"#utility.yul\":5047:5161   */\n    tag_93:\n      pop\n      jump\t// out\n        /* \"#utility.yul\":5167:5565   */\n    tag_94:\n        /* \"#utility.yul\":5326:5329   */\n      0x00\n        /* \"#utility.yul\":5347:5430   */\n      tag_151\n        /* \"#utility.yul\":5428:5429   */\n      0x00\n        /* \"#utility.yul\":5423:5426   */\n      dup4\n        /* \"#utility.yul\":5347:5430   */\n      tag_92\n      jump\t// in\n    tag_151:\n        /* \"#utility.yul\":5340:5430   */\n      swap2\n      pop\n        /* \"#utility.yul\":5439:5532   */\n      tag_152\n        /* \"#utility.yul\":5528:5531   */\n      dup3\n        /* \"#utility.yul\":5439:5532   */\n      tag_93\n      jump\t// in\n    tag_152:\n        /* \"#utility.yul\":5557:5558   */\n      0x00\n        /* \"#utility.yul\":5552:5555   */\n      dup3\n        /* \"#utility.yul\":5548:5559   */\n      add\n        /* \"#utility.yul\":5541:5559   */\n      swap1\n      pop\n        /* \"#utility.yul\":5167:5565   */\n      swap2\n      swap1\n      pop\n      jump\t// out\n        /* \"#utility.yul\":5571:5950   */\n    tag_53:\n        /* \"#utility.yul\":5755:5758   */\n      0x00\n        /* \"#utility.yul\":5777:5924   */\n      tag_154\n        /* \"#utility.yul\":5920:5923   */\n      dup3\n        /* \"#utility.yul\":5777:5924   */\n      tag_94\n      jump\t// in\n    tag_154:\n        /* \"#utility.yul\":5770:5924   */\n      swap2\n      pop\n        /* \"#utility.yul\":5941:5944   */\n      dup2\n        /* \"#utility.yul\":5934:5944   */\n      swap1\n      pop\n        /* \"#utility.yul\":5571:5950   */\n      swap2\n      swap1\n      pop\n      jump\t// out\n        /* \"#utility.yul\":5956:6130   */\n    tag_95:\n        /* \"#utility.yul\":6096:6122   */\n      0x5472616e7366657220746f206f776e6572206661696c65640000000000000000\n        /* \"#utility.yul\":6092:6093   */\n      0x00\n        /* \"#utility.yul\":6084:6090   */\n      dup3\n        /* \"#utility.yul\":6080:6094   */\n      add\n        /* \"#utility.yul\":6073:6123   */\n      mstore\n        /* \"#utility.yul\":5956:6130   */\n      pop\n      jump\t// out\n        /* \"#utility.yul\":6136:6502   */\n    tag_96:\n        /* \"#utility.yul\":6278:6281   */\n      0x00\n        /* \"#utility.yul\":6299:6366   */\n      tag_157\n        /* \"#utility.yul\":6363:6365   */\n      0x18\n        /* \"#utility.yul\":6358:6361   */\n      dup4\n        /* \"#utility.yul\":6299:6366   */\n      tag_86\n      jump\t// in\n    tag_157:\n        /* \"#utility.yul\":6292:6366   */\n      swap2\n      pop\n        /* \"#utility.yul\":6375:6468   */\n      tag_158\n        /* \"#utility.yul\":6464:6467   */\n      dup3\n        /* \"#utility.yul\":6375:6468   */\n      tag_95\n      jump\t// in\n    tag_158:\n        /* \"#utility.yul\":6493:6495   */\n      0x20\n        /* \"#utility.yul\":6488:6491   */\n      dup3\n        /* \"#utility.yul\":6484:6496   */\n      add\n        /* \"#utility.yul\":6477:6496   */\n      swap1\n      pop\n        /* \"#utility.yul\":6136:6502   */\n      swap2\n      swap1\n      pop\n      jump\t// out\n        /* \"#utility.yul\":6508:6927   */\n    tag_59:\n        /* \"#utility.yul\":6674:6678   */\n      0x00\n        /* \"#utility.yul\":6712:6714   */\n      0x20\n        /* \"#utility.yul\":6701:6710   */\n      dup3\n        /* \"#utility.yul\":6697:6715   */\n      add\n        /* \"#utility.yul\":6689:6715   */\n      swap1\n      pop\n        /* \"#utility.yul\":6761:6770   */\n      dup2\n        /* \"#utility.yul\":6755:6759   */\n      dup2\n        /* \"#utility.yul\":6751:6771   */\n      sub\n        /* \"#utility.yul\":6747:6748   */\n      0x00\n        /* \"#utility.yul\":6736:6745   */\n      dup4\n        /* \"#utility.yul\":6732:6749   */\n      add\n        /* \"#utility.yul\":6725:6772   */\n      mstore\n        /* \"#utility.yul\":6789:6920   */\n      tag_160\n        /* \"#utility.yul\":6915:6919   */\n      dup2\n        /* \"#utility.yul\":6789:6920   */\n      tag_96\n      jump\t// in\n    tag_160:\n        /* \"#utility.yul\":6781:6920   */\n      swap1\n      pop\n        /* \"#utility.yul\":6508:6927   */\n      swap2\n      swap1\n      pop\n      jump\t// out\n        /* \"#utility.yul\":6933:7051   */\n    tag_97:\n        /* \"#utility.yul\":7020:7044   */\n      tag_162\n        /* \"#utility.yul\":7038:7043   */\n      dup2\n        /* \"#utility.yul\":7020:7044   */\n      tag_82\n      jump\t// in\n    tag_162:\n        /* \"#utility.yul\":7015:7018   */\n      dup3\n        /* \"#utility.yul\":7008:7045   */\n      mstore\n        /* \"#utility.yul\":6933:7051   */\n      pop\n      pop\n      jump\t// out\n        /* \"#utility.yul\":7057:7279   */\n    tag_63:\n        /* \"#utility.yul\":7150:7154   */\n      0x00\n        /* \"#utility.yul\":7188:7190   */\n      0x20\n        /* \"#utility.yul\":7177:7186   */\n      dup3\n        /* \"#utility.yul\":7173:7191   */\n      add\n        /* \"#utility.yul\":7165:7191   */\n      swap1\n      pop\n        /* \"#utility.yul\":7201:7272   */\n      tag_164\n        /* \"#utility.yul\":7269:7270   */\n      0x00\n        /* \"#utility.yul\":7258:7267   */\n      dup4\n        /* \"#utility.yul\":7254:7271   */\n      add\n        /* \"#utility.yul\":7245:7251   */\n      dup5\n        /* \"#utility.yul\":7201:7272   */\n      tag_97\n      jump\t// in\n    tag_164:\n        /* \"#utility.yul\":7057:7279   */\n      swap3\n      swap2\n      pop\n      pop\n      jump\t// out\n        /* \"#utility.yul\":7285:7727   */\n    tag_67:\n        /* \"#utility.yul\":7434:7438   */\n      0x00\n        /* \"#utility.yul\":7472:7474   */\n      0x60\n        /* \"#utility.yul\":7461:7470   */\n      dup3\n        /* \"#utility.yul\":7457:7475   */\n      add\n        /* \"#utility.yul\":7449:7475   */\n      swap1\n      pop\n        /* \"#utility.yul\":7485:7556   */\n      tag_166\n        /* \"#utility.yul\":7553:7554   */\n      0x00\n        /* \"#utility.yul\":7542:7551   */\n      dup4\n        /* \"#utility.yul\":7538:7555   */\n      add\n        /* \"#utility.yul\":7529:7535   */\n      dup7\n        /* \"#utility.yul\":7485:7556   */\n      tag_97\n      jump\t// in\n    tag_166:\n        /* \"#utility.yul\":7566:7638   */\n      tag_167\n        /* \"#utility.yul\":7634:7636   */\n      0x20\n        /* \"#utility.yul\":7623:7632   */\n      dup4\n        /* \"#utility.yul\":7619:7637   */\n      add\n        /* \"#utility.yul\":7610:7616   */\n      dup6\n        /* \"#utility.yul\":7566:7638   */\n      tag_85\n      jump\t// in\n    tag_167:\n        /* \"#utility.yul\":7648:7720   */\n      tag_168\n        /* \"#utility.yul\":7716:7718   */\n      0x40\n        /* \"#utility.yul\":7705:7714   */\n      dup4\n        /* \"#utility.yul\":7701:7719   */\n      add\n        /* \"#utility.yul\":7692:7698   */\n      dup5\n        /* \"#utility.yul\":7648:7720   */\n      tag_85\n      jump\t// in\n    tag_168:\n        /* \"#utility.yul\":7285:7727   */\n      swap5\n      swap4\n      pop\n      pop\n      pop\n      pop\n      jump\t// out\n        /* \"#utility.yul\":7733:7927   */\n    tag_71:\n        /* \"#utility.yul\":7773:7777   */\n      0x00\n        /* \"#utility.yul\":7793:7813   */\n      tag_170\n        /* \"#utility.yul\":7811:7812   */\n      dup3\n        /* \"#utility.yul\":7793:7813   */\n      tag_78\n      jump\t// in\n    tag_170:\n        /* \"#utility.yul\":7788:7813   */\n      swap2\n      pop\n        /* \"#utility.yul\":7827:7847   */\n      tag_171\n        /* \"#utility.yul\":7845:7846   */\n      dup4\n        /* \"#utility.yul\":7827:7847   */\n      tag_78\n      jump\t// in\n    tag_171:\n        /* \"#utility.yul\":7822:7847   */\n      swap3\n      pop\n        /* \"#utility.yul\":7871:7872   */\n      dup3\n        /* \"#utility.yul\":7868:7869   */\n      dup3\n        /* \"#utility.yul\":7864:7873   */\n      sub\n        /* \"#utility.yul\":7856:7873   */\n      swap1\n      pop\n        /* \"#utility.yul\":7895:7896   */\n      dup2\n        /* \"#utility.yul\":7889:7893   */\n      dup2\n        /* \"#utility.yul\":7886:7897   */\n      gt\n        /* \"#utility.yul\":7883:7920   */\n      iszero\n      tag_172\n      jumpi\n        /* \"#utility.yul\":7900:7918   */\n      tag_173\n      tag_89\n      jump\t// in\n    tag_173:\n        /* \"#utility.yul\":7883:7920   */\n    tag_172:\n        /* \"#utility.yul\":7733:7927   */\n      swap3\n      swap2\n      pop\n      pop\n      jump\t// out\n\n    auxdata: 0xa2646970667358221220bb24376982dc9e1c918d67bef80914c0410735c3f806af9ff39e42a9b6fb112964736f6c634300081a0033\n}\n",
				"bytecode": {
					"linkReferences": {},
					"object": "6080604052348015600e575f80fd5b50335f806101000a81548173ffffffffffffffffffffffffffffffffffffffff021916908373ffffffffffffffffffffffffffffffffffffffff160217905550610a038061005b5f395ff3fe608060405260043610610042575f3560e01c80631964743a1461005b5780632e1a7d4d1461007157806370a0823114610099578063d0e30db0146100d557610051565b366100515761004f6100df565b005b6100596100df565b005b348015610066575f80fd5b5061006f610226565b005b34801561007c575f80fd5b506100976004803603810190610092919061064f565b61041d565b005b3480156100a4575f80fd5b506100bf60048036038101906100ba91906106d4565b6105c8565b6040516100cc919061070e565b60405180910390f35b6100dd61060e565b005b345f8111610122576040517f08c379a000000000000000000000000000000000000000000000000000000000815260040161011990610781565b60405180910390fd5b3373ffffffffffffffffffffffffffffffffffffffff167fe1fffcc4923d04b559f4d29a8bfc6cda04eb5b0d3c460751c2402c5c5cc9109c34604051610168919061070e565b60405180910390a2600233908060018154018082558091505060019003905f5260205f20015f9091909190916101000a81548173ffffffffffffffffffffffffffffffffffffffff021916908373ffffffffffffffffffffffffffffffffffffffff1602179055503460015f3373ffffffffffffffffffffffffffffffffffffffff1673ffffffffffffffffffffffffffffffffffffffff1681526020019081526020015f205f82825461021c91906107cc565b9250508190555050565b5f8054906101000a900473ffffffffffffffffffffffffffffffffffffffff1673ffffffffffffffffffffffffffffffffffffffff163373ffffffffffffffffffffffffffffffffffffffff16146102b3576040517f08c379a00000000000000000000000000000000000000000000000000000000081526004016102aa90610849565b60405180910390fd5b5f4790505f5b600280549050811015610350575f60015f600284815481106102de576102dd610867565b5b905f5260205f20015f9054906101000a900473ffffffffffffffffffffffffffffffffffffffff1673ffffffffffffffffffffffffffffffffffffffff1673ffffffffffffffffffffffffffffffffffffffff1681526020019081526020015f208190555080806001019150506102b9565b505f805f9054906101000a900473ffffffffffffffffffffffffffffffffffffffff1673ffffffffffffffffffffffffffffffffffffffff1682604051610396906108c1565b5f6040518083038185875af1925050503d805f81146103d0576040519150601f19603f3d011682016040523d82523d5f602084013e6103d5565b606091505b5050905080610419576040517f08c379a00000000000000000000000000000000000000000000000000000000081526004016104109061091f565b60405180910390fd5b5050565b5f810361046157336040517f275e9c3f000000000000000000000000000000000000000000000000000000008152600401610458919061094c565b60405180910390fd5b8060015f3373ffffffffffffffffffffffffffffffffffffffff1673ffffffffffffffffffffffffffffffffffffffff1681526020019081526020015f2054101561052457338160015f3373ffffffffffffffffffffffffffffffffffffffff1673ffffffffffffffffffffffffffffffffffffffff1681526020019081526020015f20546040517faf2e69f800000000000000000000000000000000000000000000000000000000815260040161051b93929190610965565b60405180910390fd5b3373ffffffffffffffffffffffffffffffffffffffff167f7fcf532c15f0a6db0bd6d0e038bea71d30d808c7d98cb3bf7268a95bf5081b658260405161056a919061070e565b60405180910390a28060015f3373ffffffffffffffffffffffffffffffffffffffff1673ffffffffffffffffffffffffffffffffffffffff1681526020019081526020015f205f8282546105be919061099a565b9250508190555050565b5f60015f8373ffffffffffffffffffffffffffffffffffffffff1673ffffffffffffffffffffffffffffffffffffffff1681526020019081526020015f20549050919050565b6106166100df565b565b5f80fd5b5f819050919050565b61062e8161061c565b8114610638575f80fd5b50565b5f8135905061064981610625565b92915050565b5f6020828403121561066457610663610618565b5b5f6106718482850161063b565b91505092915050565b5f73ffffffffffffffffffffffffffffffffffffffff82169050919050565b5f6106a38261067a565b9050919050565b6106b381610699565b81146106bd575f80fd5b50565b5f813590506106ce816106aa565b92915050565b5f602082840312156106e9576106e8610618565b5b5f6106f6848285016106c0565b91505092915050565b6107088161061c565b82525050565b5f6020820190506107215f8301846106ff565b92915050565b5f82825260208201905092915050565b7f56616c7565206973207a65726f210000000000000000000000000000000000005f82015250565b5f61076b600e83610727565b915061077682610737565b602082019050919050565b5f6020820190508181035f8301526107988161075f565b9050919050565b7f4e487b71000000000000000000000000000000000000000000000000000000005f52601160045260245ffd5b5f6107d68261061c565b91506107e18361061c565b92508282019050808211156107f9576107f861079f565b5b92915050565b7f4f6e6c79206f776e6572210000000000000000000000000000000000000000005f82015250565b5f610833600b83610727565b915061083e826107ff565b602082019050919050565b5f6020820190508181035f83015261086081610827565b9050919050565b7f4e487b71000000000000000000000000000000000000000000000000000000005f52603260045260245ffd5b5f81905092915050565b50565b5f6108ac5f83610894565b91506108b78261089e565b5f82019050919050565b5f6108cb826108a1565b9150819050919050565b7f5472616e7366657220746f206f776e6572206661696c656400000000000000005f82015250565b5f610909601883610727565b9150610914826108d5565b602082019050919050565b5f6020820190508181035f830152610936816108fd565b9050919050565b61094681610699565b82525050565b5f60208201905061095f5f83018461093d565b92915050565b5f6060820190506109785f83018661093d565b61098560208301856106ff565b61099260408301846106ff565b949350505050565b5f6109a48261061c565b91506109af8361061c565b92508282039050818111156109c7576109c661079f565b5b9291505056fea2646970667358221220bb24376982dc9e1c918d67bef80914c0410735c3f806af9ff39e42a9b6fb112964736f6c634300081a0033",
					"opcodes": "PUSH1 0x80 PUSH1 0x40 MSTORE CALLVALUE DUP1 ISZERO PUSH1 0xE JUMPI PUSH0 DUP1 REVERT JUMPDEST POP CALLER PUSH0 DUP1 PUSH2 0x100 EXP DUP2 SLOAD DUP2 PUSH20 0xFFFFFFFFFFFFFFFFFFFFFFFFFFFFFFFFFFFFFFFF MUL NOT AND SWAP1 DUP4 PUSH20 0xFFFFFFFFFFFFFFFFFFFFFFFFFFFFFFFFFFFFFFFF AND MUL OR SWAP1 SSTORE POP PUSH2 0xA03 DUP1 PUSH2 0x5B PUSH0 CODECOPY PUSH0 RETURN INVALID PUSH1 0x80 PUSH1 0x40 MSTORE PUSH1 0x4 CALLDATASIZE LT PUSH2 0x42 JUMPI PUSH0 CALLDATALOAD PUSH1 0xE0 SHR DUP1 PUSH4 0x1964743A EQ PUSH2 0x5B JUMPI DUP1 PUSH4 0x2E1A7D4D EQ PUSH2 0x71 JUMPI DUP1 PUSH4 0x70A08231 EQ PUSH2 0x99 JUMPI DUP1 PUSH4 0xD0E30DB0 EQ PUSH2 0xD5 JUMPI PUSH2 0x51 JUMP JUMPDEST CALLDATASIZE PUSH2 0x51 JUMPI PUSH2 0x4F PUSH2 0xDF JUMP JUMPDEST STOP JUMPDEST PUSH2 0x59 PUSH2 0xDF JUMP JUMPDEST STOP JUMPDEST CALLVALUE DUP1 ISZERO PUSH2 0x66 JUMPI PUSH0 DUP1 REVERT JUMPDEST POP PUSH2 0x6F PUSH2 0x226 JUMP JUMPDEST STOP JUMPDEST CALLVALUE DUP1 ISZERO PUSH2 0x7C JUMPI PUSH0 DUP1 REVERT JUMPDEST POP PUSH2 0x97 PUSH1 0x4 DUP1 CALLDATASIZE SUB DUP2 ADD SWAP1 PUSH2 0x92 SWAP2 SWAP1 PUSH2 0x64F JUMP JUMPDEST PUSH2 0x41D JUMP JUMPDEST STOP JUMPDEST CALLVALUE DUP1 ISZERO PUSH2 0xA4 JUMPI PUSH0 DUP1 REVERT JUMPDEST POP PUSH2 0xBF PUSH1 0x4 DUP1 CALLDATASIZE SUB DUP2 ADD SWAP1 PUSH2 0xBA SWAP2 SWAP1 PUSH2 0x6D4 JUMP JUMPDEST PUSH2 0x5C8 JUMP JUMPDEST PUSH1 0x40 MLOAD PUSH2 0xCC SWAP2 SWAP1 PUSH2 0x70E JUMP JUMPDEST PUSH1 0x40 MLOAD DUP1 SWAP2 SUB SWAP1 RETURN JUMPDEST PUSH2 0xDD PUSH2 0x60E JUMP JUMPDEST STOP JUMPDEST CALLVALUE PUSH0 DUP2 GT PUSH2 0x122 JUMPI PUSH1 0x40 MLOAD PUSH32 0x8C379A000000000000000000000000000000000000000000000000000000000 DUP2 MSTORE PUSH1 0x4 ADD PUSH2 0x119 SWAP1 PUSH2 0x781 JUMP JUMPDEST PUSH1 0x40 MLOAD DUP1 SWAP2 SUB SWAP1 REVERT JUMPDEST CALLER PUSH20 0xFFFFFFFFFFFFFFFFFFFFFFFFFFFFFFFFFFFFFFFF AND PUSH32 0xE1FFFCC4923D04B559F4D29A8BFC6CDA04EB5B0D3C460751C2402C5C5CC9109C CALLVALUE PUSH1 0x40 MLOAD PUSH2 0x168 SWAP2 SWAP1 PUSH2 0x70E JUMP JUMPDEST PUSH1 0x40 MLOAD DUP1 SWAP2 SUB SWAP1 LOG2 PUSH1 0x2 CALLER SWAP1 DUP1 PUSH1 0x1 DUP2 SLOAD ADD DUP1 DUP3 SSTORE DUP1 SWAP2 POP POP PUSH1 0x1 SWAP1 SUB SWAP1 PUSH0 MSTORE PUSH1 0x20 PUSH0 KECCAK256 ADD PUSH0 SWAP1 SWAP2 SWAP1 SWAP2 SWAP1 SWAP2 PUSH2 0x100 EXP DUP2 SLOAD DUP2 PUSH20 0xFFFFFFFFFFFFFFFFFFFFFFFFFFFFFFFFFFFFFFFF MUL NOT AND SWAP1 DUP4 PUSH20 0xFFFFFFFFFFFFFFFFFFFFFFFFFFFFFFFFFFFFFFFF AND MUL OR SWAP1 SSTORE POP CALLVALUE PUSH1 0x1 PUSH0 CALLER PUSH20 0xFFFFFFFFFFFFFFFFFFFFFFFFFFFFFFFFFFFFFFFF AND PUSH20 0xFFFFFFFFFFFFFFFFFFFFFFFFFFFFFFFFFFFFFFFF AND DUP2 MSTORE PUSH1 0x20 ADD SWAP1 DUP2 MSTORE PUSH1 0x20 ADD PUSH0 KECCAK256 PUSH0 DUP3 DUP3 SLOAD PUSH2 0x21C SWAP2 SWAP1 PUSH2 0x7CC JUMP JUMPDEST SWAP3 POP POP DUP2 SWAP1 SSTORE POP POP JUMP JUMPDEST PUSH0 DUP1 SLOAD SWAP1 PUSH2 0x100 EXP SWAP1 DIV PUSH20 0xFFFFFFFFFFFFFFFFFFFFFFFFFFFFFFFFFFFFFFFF AND PUSH20 0xFFFFFFFFFFFFFFFFFFFFFFFFFFFFFFFFFFFFFFFF AND CALLER PUSH20 0xFFFFFFFFFFFFFFFFFFFFFFFFFFFFFFFFFFFFFFFF AND EQ PUSH2 0x2B3 JUMPI PUSH1 0x40 MLOAD PUSH32 0x8C379A000000000000000000000000000000000000000000000000000000000 DUP2 MSTORE PUSH1 0x4 ADD PUSH2 0x2AA SWAP1 PUSH2 0x849 JUMP JUMPDEST PUSH1 0x40 MLOAD DUP1 SWAP2 SUB SWAP1 REVERT JUMPDEST PUSH0 SELFBALANCE SWAP1 POP PUSH0 JUMPDEST PUSH1 0x2 DUP1 SLOAD SWAP1 POP DUP2 LT ISZERO PUSH2 0x350 JUMPI PUSH0 PUSH1 0x1 PUSH0 PUSH1 0x2 DUP5 DUP2 SLOAD DUP2 LT PUSH2 0x2DE JUMPI PUSH2 0x2DD PUSH2 0x867 JUMP JUMPDEST JUMPDEST SWAP1 PUSH0 MSTORE PUSH1 0x20 PUSH0 KECCAK256 ADD PUSH0 SWAP1 SLOAD SWAP1 PUSH2 0x100 EXP SWAP1 DIV PUSH20 0xFFFFFFFFFFFFFFFFFFFFFFFFFFFFFFFFFFFFFFFF AND PUSH20 0xFFFFFFFFFFFFFFFFFFFFFFFFFFFFFFFFFFFFFFFF AND PUSH20 0xFFFFFFFFFFFFFFFFFFFFFFFFFFFFFFFFFFFFFFFF AND DUP2 MSTORE PUSH1 0x20 ADD SWAP1 DUP2 MSTORE PUSH1 0x20 ADD PUSH0 KECCAK256 DUP2 SWAP1 SSTORE POP DUP1 DUP1 PUSH1 0x1 ADD SWAP2 POP POP PUSH2 0x2B9 JUMP JUMPDEST POP PUSH0 DUP1 PUSH0 SWAP1 SLOAD SWAP1 PUSH2 0x100 EXP SWAP1 DIV PUSH20 0xFFFFFFFFFFFFFFFFFFFFFFFFFFFFFFFFFFFFFFFF AND PUSH20 0xFFFFFFFFFFFFFFFFFFFFFFFFFFFFFFFFFFFFFFFF AND DUP3 PUSH1 0x40 MLOAD PUSH2 0x396 SWAP1 PUSH2 0x8C1 JUMP JUMPDEST PUSH0 PUSH1 0x40 MLOAD DUP1 DUP4 SUB DUP2 DUP6 DUP8 GAS CALL SWAP3 POP POP POP RETURNDATASIZE DUP1 PUSH0 DUP2 EQ PUSH2 0x3D0 JUMPI PUSH1 0x40 MLOAD SWAP2 POP PUSH1 0x1F NOT PUSH1 0x3F RETURNDATASIZE ADD AND DUP3 ADD PUSH1 0x40 MSTORE RETURNDATASIZE DUP3 MSTORE RETURNDATASIZE PUSH0 PUSH1 0x20 DUP5 ADD RETURNDATACOPY PUSH2 0x3D5 JUMP JUMPDEST PUSH1 0x60 SWAP2 POP JUMPDEST POP POP SWAP1 POP DUP1 PUSH2 0x419 JUMPI PUSH1 0x40 MLOAD PUSH32 0x8C379A000000000000000000000000000000000000000000000000000000000 DUP2 MSTORE PUSH1 0x4 ADD PUSH2 0x410 SWAP1 PUSH2 0x91F JUMP JUMPDEST PUSH1 0x40 MLOAD DUP1 SWAP2 SUB SWAP1 REVERT JUMPDEST POP POP JUMP JUMPDEST PUSH0 DUP2 SUB PUSH2 0x461 JUMPI CALLER PUSH1 0x40 MLOAD PUSH32 0x275E9C3F00000000000000000000000000000000000000000000000000000000 DUP2 MSTORE PUSH1 0x4 ADD PUSH2 0x458 SWAP2 SWAP1 PUSH2 0x94C JUMP JUMPDEST PUSH1 0x40 MLOAD DUP1 SWAP2 SUB SWAP1 REVERT JUMPDEST DUP1 PUSH1 0x1 PUSH0 CALLER PUSH20 0xFFFFFFFFFFFFFFFFFFFFFFFFFFFFFFFFFFFFFFFF AND PUSH20 0xFFFFFFFFFFFFFFFFFFFFFFFFFFFFFFFFFFFFFFFF AND DUP2 MSTORE PUSH1 0x20 ADD SWAP1 DUP2 MSTORE PUSH1 0x20 ADD PUSH0 KECCAK256 SLOAD LT ISZERO PUSH2 0x524 JUMPI CALLER DUP2 PUSH1 0x1 PUSH0 CALLER PUSH20 0xFFFFFFFFFFFFFFFFFFFFFFFFFFFFFFFFFFFFFFFF AND PUSH20 0xFFFFFFFFFFFFFFFFFFFFFFFFFFFFFFFFFFFFFFFF AND DUP2 MSTORE PUSH1 0x20 ADD SWAP1 DUP2 MSTORE PUSH1 0x20 ADD PUSH0 KECCAK256 SLOAD PUSH1 0x40 MLOAD PUSH32 0xAF2E69F800000000000000000000000000000000000000000000000000000000 DUP2 MSTORE PUSH1 0x4 ADD PUSH2 0x51B SWAP4 SWAP3 SWAP2 SWAP1 PUSH2 0x965 JUMP JUMPDEST PUSH1 0x40 MLOAD DUP1 SWAP2 SUB SWAP1 REVERT JUMPDEST CALLER PUSH20 0xFFFFFFFFFFFFFFFFFFFFFFFFFFFFFFFFFFFFFFFF AND PUSH32 0x7FCF532C15F0A6DB0BD6D0E038BEA71D30D808C7D98CB3BF7268A95BF5081B65 DUP3 PUSH1 0x40 MLOAD PUSH2 0x56A SWAP2 SWAP1 PUSH2 0x70E JUMP JUMPDEST PUSH1 0x40 MLOAD DUP1 SWAP2 SUB SWAP1 LOG2 DUP1 PUSH1 0x1 PUSH0 CALLER PUSH20 0xFFFFFFFFFFFFFFFFFFFFFFFFFFFFFFFFFFFFFFFF AND PUSH20 0xFFFFFFFFFFFFFFFFFFFFFFFFFFFFFFFFFFFFFFFF AND DUP2 MSTORE PUSH1 0x20 ADD SWAP1 DUP2 MSTORE PUSH1 0x20 ADD PUSH0 KECCAK256 PUSH0 DUP3 DUP3 SLOAD PUSH2 0x5BE SWAP2 SWAP1 PUSH2 0x99A JUMP JUMPDEST SWAP3 POP POP DUP2 SWAP1 SSTORE POP POP JUMP JUMPDEST PUSH0 PUSH1 0x1 PUSH0 DUP4 PUSH20 0xFFFFFFFFFFFFFFFFFFFFFFFFFFFFFFFFFFFFFFFF AND PUSH20 0xFFFFFFFFFFFFFFFFFFFFFFFFFFFFFFFFFFFFFFFF AND DUP2 MSTORE PUSH1 0x20 ADD SWAP1 DUP2 MSTORE PUSH1 0x20 ADD PUSH0 KECCAK256 SLOAD SWAP1 POP SWAP2 SWAP1 POP JUMP JUMPDEST PUSH2 0x616 PUSH2 0xDF JUMP JUMPDEST JUMP JUMPDEST PUSH0 DUP1 REVERT JUMPDEST PUSH0 DUP2 SWAP1 POP SWAP2 SWAP1 POP JUMP JUMPDEST PUSH2 0x62E DUP2 PUSH2 0x61C JUMP JUMPDEST DUP2 EQ PUSH2 0x638 JUMPI PUSH0 DUP1 REVERT JUMPDEST POP JUMP JUMPDEST PUSH0 DUP2 CALLDATALOAD SWAP1 POP PUSH2 0x649 DUP2 PUSH2 0x625 JUMP JUMPDEST SWAP3 SWAP2 POP POP JUMP JUMPDEST PUSH0 PUSH1 0x20 DUP3 DUP5 SUB SLT ISZERO PUSH2 0x664 JUMPI PUSH2 0x663 PUSH2 0x618 JUMP JUMPDEST JUMPDEST PUSH0 PUSH2 0x671 DUP5 DUP3 DUP6 ADD PUSH2 0x63B JUMP JUMPDEST SWAP2 POP POP SWAP3 SWAP2 POP POP JUMP JUMPDEST PUSH0 PUSH20 0xFFFFFFFFFFFFFFFFFFFFFFFFFFFFFFFFFFFFFFFF DUP3 AND SWAP1 POP SWAP2 SWAP1 POP JUMP JUMPDEST PUSH0 PUSH2 0x6A3 DUP3 PUSH2 0x67A JUMP JUMPDEST SWAP1 POP SWAP2 SWAP1 POP JUMP JUMPDEST PUSH2 0x6B3 DUP2 PUSH2 0x699 JUMP JUMPDEST DUP2 EQ PUSH2 0x6BD JUMPI PUSH0 DUP1 REVERT JUMPDEST POP JUMP JUMPDEST PUSH0 DUP2 CALLDATALOAD SWAP1 POP PUSH2 0x6CE DUP2 PUSH2 0x6AA JUMP JUMPDEST SWAP3 SWAP2 POP POP JUMP JUMPDEST PUSH0 PUSH1 0x20 DUP3 DUP5 SUB SLT ISZERO PUSH2 0x6E9 JUMPI PUSH2 0x6E8 PUSH2 0x618 JUMP JUMPDEST JUMPDEST PUSH0 PUSH2 0x6F6 DUP5 DUP3 DUP6 ADD PUSH2 0x6C0 JUMP JUMPDEST SWAP2 POP POP SWAP3 SWAP2 POP POP JUMP JUMPDEST PUSH2 0x708 DUP2 PUSH2 0x61C JUMP JUMPDEST DUP3 MSTORE POP POP JUMP JUMPDEST PUSH0 PUSH1 0x20 DUP3 ADD SWAP1 POP PUSH2 0x721 PUSH0 DUP4 ADD DUP5 PUSH2 0x6FF JUMP JUMPDEST SWAP3 SWAP2 POP POP JUMP JUMPDEST PUSH0 DUP3 DUP3 MSTORE PUSH1 0x20 DUP3 ADD SWAP1 POP SWAP3 SWAP2 POP POP JUMP JUMPDEST PUSH32 0x56616C7565206973207A65726F21000000000000000000000000000000000000 PUSH0 DUP3 ADD MSTORE POP JUMP JUMPDEST PUSH0 PUSH2 0x76B PUSH1 0xE DUP4 PUSH2 0x727 JUMP JUMPDEST SWAP2 POP PUSH2 0x776 DUP3 PUSH2 0x737 JUMP JUMPDEST PUSH1 0x20 DUP3 ADD SWAP1 POP SWAP2 SWAP1 POP JUMP JUMPDEST PUSH0 PUSH1 0x20 DUP3 ADD SWAP1 POP DUP2 DUP2 SUB PUSH0 DUP4 ADD MSTORE PUSH2 0x798 DUP2 PUSH2 0x75F JUMP JUMPDEST SWAP1 POP SWAP2 SWAP1 POP JUMP JUMPDEST PUSH32 0x4E487B7100000000000000000000000000000000000000000000000000000000 PUSH0 MSTORE PUSH1 0x11 PUSH1 0x4 MSTORE PUSH1 0x24 PUSH0 REVERT JUMPDEST PUSH0 PUSH2 0x7D6 DUP3 PUSH2 0x61C JUMP JUMPDEST SWAP2 POP PUSH2 0x7E1 DUP4 PUSH2 0x61C JUMP JUMPDEST SWAP3 POP DUP3 DUP3 ADD SWAP1 POP DUP1 DUP3 GT ISZERO PUSH2 0x7F9 JUMPI PUSH2 0x7F8 PUSH2 0x79F JUMP JUMPDEST JUMPDEST SWAP3 SWAP2 POP POP JUMP JUMPDEST PUSH32 0x4F6E6C79206F776E657221000000000000000000000000000000000000000000 PUSH0 DUP3 ADD MSTORE POP JUMP JUMPDEST PUSH0 PUSH2 0x833 PUSH1 0xB DUP4 PUSH2 0x727 JUMP JUMPDEST SWAP2 POP PUSH2 0x83E DUP3 PUSH2 0x7FF JUMP JUMPDEST PUSH1 0x20 DUP3 ADD SWAP1 POP SWAP2 SWAP1 POP JUMP JUMPDEST PUSH0 PUSH1 0x20 DUP3 ADD SWAP1 POP DUP2 DUP2 SUB PUSH0 DUP4 ADD MSTORE PUSH2 0x860 DUP2 PUSH2 0x827 JUMP JUMPDEST SWAP1 POP SWAP2 SWAP1 POP JUMP JUMPDEST PUSH32 0x4E487B7100000000000000000000000000000000000000000000000000000000 PUSH0 MSTORE PUSH1 0x32 PUSH1 0x4 MSTORE PUSH1 0x24 PUSH0 REVERT JUMPDEST PUSH0 DUP2 SWAP1 POP SWAP3 SWAP2 POP POP JUMP JUMPDEST POP JUMP JUMPDEST PUSH0 PUSH2 0x8AC PUSH0 DUP4 PUSH2 0x894 JUMP JUMPDEST SWAP2 POP PUSH2 0x8B7 DUP3 PUSH2 0x89E JUMP JUMPDEST PUSH0 DUP3 ADD SWAP1 POP SWAP2 SWAP1 POP JUMP JUMPDEST PUSH0 PUSH2 0x8CB DUP3 PUSH2 0x8A1 JUMP JUMPDEST SWAP2 POP DUP2 SWAP1 POP SWAP2 SWAP1 POP JUMP JUMPDEST PUSH32 0x5472616E7366657220746F206F776E6572206661696C65640000000000000000 PUSH0 DUP3 ADD MSTORE POP JUMP JUMPDEST PUSH0 PUSH2 0x909 PUSH1 0x18 DUP4 PUSH2 0x727 JUMP JUMPDEST SWAP2 POP PUSH2 0x914 DUP3 PUSH2 0x8D5 JUMP JUMPDEST PUSH1 0x20 DUP3 ADD SWAP1 POP SWAP2 SWAP1 POP JUMP JUMPDEST PUSH0 PUSH1 0x20 DUP3 ADD SWAP1 POP DUP2 DUP2 SUB PUSH0 DUP4 ADD MSTORE PUSH2 0x936 DUP2 PUSH2 0x8FD JUMP JUMPDEST SWAP1 POP SWAP2 SWAP1 POP JUMP JUMPDEST PUSH2 0x946 DUP2 PUSH2 0x699 JUMP JUMPDEST DUP3 MSTORE POP POP JUMP JUMPDEST PUSH0 PUSH1 0x20 DUP3 ADD SWAP1 POP PUSH2 0x95F PUSH0 DUP4 ADD DUP5 PUSH2 0x93D JUMP JUMPDEST SWAP3 SWAP2 POP POP JUMP JUMPDEST PUSH0 PUSH1 0x60 DUP3 ADD SWAP1 POP PUSH2 0x978 PUSH0 DUP4 ADD DUP7 PUSH2 0x93D JUMP JUMPDEST PUSH2 0x985 PUSH1 0x20 DUP4 ADD DUP6 PUSH2 0x6FF JUMP JUMPDEST PUSH2 0x992 PUSH1 0x40 DUP4 ADD DUP5 PUSH2 0x6FF JUMP JUMPDEST SWAP5 SWAP4 POP POP POP POP JUMP JUMPDEST PUSH0 PUSH2 0x9A4 DUP3 PUSH2 0x61C JUMP JUMPDEST SWAP2 POP PUSH2 0x9AF DUP4 PUSH2 0x61C JUMP JUMPDEST SWAP3 POP DUP3 DUP3 SUB SWAP1 POP DUP2 DUP2 GT ISZERO PUSH2 0x9C7 JUMPI PUSH2 0x9C6 PUSH2 0x79F JUMP JUMPDEST JUMPDEST SWAP3 SWAP2 POP POP JUMP INVALID LOG2 PUSH5 0x6970667358 0x22 SLT KECCAK256 0xBB 0x24 CALLDATACOPY PUSH10 0x82DC9E1C918D67BEF809 EQ 0xC0 COINBASE SMOD CALLDATALOAD 0xC3 0xF8 MOD 0xAF SWAP16 RETURN SWAP15 TIMESTAMP 0xA9 0xB6 0xFB GT 0x29 PUSH5 0x736F6C6343 STOP ADDMOD BYTE STOP CALLER "
				},
				"gasEstimates": {
					"creation": {
						"codeDepositCost": "512600",
						"executionCost": "24812",
						"totalCost": "537412"
					},
					"external": {
						"": "infinite",
						"balanceOf(address)": "2851",
						"deposit()": "infinite",
						"withdraw(uint256)": "infinite",
						"withdrawAndRun()": "infinite"
					},
					"internal": {
						"_deposit()": "infinite"
					}
				},
				"methodIdentifiers": {
					"balanceOf(address)": "70a08231",
					"deposit()": "d0e30db0",
					"withdraw(uint256)": "2e1a7d4d",
					"withdrawAndRun()": "1964743a"
				}
			},
			"storageLayout": {
				"storage": [
					{
						"astId": 56,
						"contract": "HomeWork1/NativeBank.sol:Bank",
						"label": "owner",
						"offset": 0,
						"slot": "0",
						"type": "t_address"
					},
					{
						"astId": 60,
						"contract": "HomeWork1/NativeBank.sol:Bank",
						"label": "balances",
						"offset": 0,
						"slot": "1",
						"type": "t_mapping(t_address,t_uint256)"
					},
					{
						"astId": 63,
						"contract": "HomeWork1/NativeBank.sol:Bank",
						"label": "accountHolders",
						"offset": 0,
						"slot": "2",
						"type": "t_array(t_address)dyn_storage"
					}
				],
				"types": {
					"t_address": {
						"encoding": "inplace",
						"label": "address",
						"numberOfBytes": "20"
					},
					"t_array(t_address)dyn_storage": {
						"base": "t_address",
						"encoding": "dynamic_array",
						"label": "address[]",
						"numberOfBytes": "32"
					},
					"t_mapping(t_address,t_uint256)": {
						"encoding": "mapping",
						"key": "t_address",
						"label": "mapping(address => uint256)",
						"numberOfBytes": "32",
						"value": "t_uint256"
					},
					"t_uint256": {
						"encoding": "inplace",
						"label": "uint256",
						"numberOfBytes": "32"
					}
				}
			},
			"userdoc": {
				"kind": "user",
				"methods": {},
				"version": 1
			}
		}
	}
}